{
  "contractName": "Contribution",
  "abi": [
    {
      "constant": true,
      "inputs": [],
      "name": "pay",
      "outputs": [
        {
          "name": "",
          "type": "uint256"
        }
      ],
      "payable": false,
      "stateMutability": "view",
      "type": "function",
      "signature": "0x1b9265b8"
    },
    {
      "constant": true,
      "inputs": [],
      "name": "fundraisings",
      "outputs": [
        {
          "name": "participants",
          "type": "uint256"
        },
        {
          "name": "funds",
          "type": "uint256"
        },
        {
          "name": "target",
          "type": "uint256"
        }
      ],
      "payable": false,
      "stateMutability": "view",
      "type": "function",
      "signature": "0x67a53f0b"
    },
    {
      "inputs": [],
      "payable": false,
      "stateMutability": "nonpayable",
      "type": "constructor",
      "signature": "constructor"
    },
    {
      "constant": false,
      "inputs": [
        {
          "name": "_target",
          "type": "uint256"
        }
      ],
      "name": "setTarget",
      "outputs": [],
      "payable": false,
      "stateMutability": "nonpayable",
      "type": "function",
      "signature": "0xb480eac0"
    },
    {
      "constant": false,
      "inputs": [
        {
          "name": "_money",
          "type": "uint256"
        }
      ],
      "name": "contribute",
      "outputs": [],
      "payable": false,
      "stateMutability": "nonpayable",
      "type": "function",
      "signature": "0xc1cbbca7"
    },
    {
      "constant": true,
      "inputs": [],
      "name": "maxContribution",
      "outputs": [
        {
          "name": "max",
          "type": "uint256"
        }
      ],
      "payable": false,
      "stateMutability": "view",
      "type": "function",
      "signature": "0x8d3d6576"
    },
    {
      "constant": true,
      "inputs": [],
      "name": "getTarget",
      "outputs": [
        {
          "name": "target",
          "type": "uint256"
        }
      ],
      "payable": false,
      "stateMutability": "view",
      "type": "function",
      "signature": "0xf00e6a2a"
    },
    {
      "constant": true,
      "inputs": [],
      "name": "getFunds",
      "outputs": [
        {
          "name": "funds",
          "type": "uint256"
        }
      ],
      "payable": false,
      "stateMutability": "view",
      "type": "function",
      "signature": "0x4d9b3735"
    },
    {
      "constant": true,
      "inputs": [],
      "name": "getParticipants",
      "outputs": [
        {
          "name": "participants",
          "type": "uint256"
        }
      ],
      "payable": false,
      "stateMutability": "view",
      "type": "function",
      "signature": "0x5aa68ac0"
    },
    {
      "constant": true,
      "inputs": [],
      "name": "getPay",
      "outputs": [
        {
          "name": "_pay",
          "type": "uint256"
        }
      ],
      "payable": false,
      "stateMutability": "view",
      "type": "function",
      "signature": "0xa030fde3"
    }
  ],
  "bytecode": "0x608060405234801561001057600080fd5b50336000806101000a81548173ffffffffffffffffffffffffffffffffffffffff021916908373ffffffffffffffffffffffffffffffffffffffff16021790555060006002600001819055506000600260010181905550600060028001819055506000600160008060009054906101000a900473ffffffffffffffffffffffffffffffffffffffff1673ffffffffffffffffffffffffffffffffffffffff1673ffffffffffffffffffffffffffffffffffffffff16815260200190815260200160002060000181905550610581806100e96000396000f3fe608060405260043610610099576000357c0100000000000000000000000000000000000000000000000000000000900463ffffffff1680631b9265b81461009e5780634d9b3735146100c95780635aa68ac0146100f457806367a53f0b1461011f5780638d3d657614610158578063a030fde314610183578063b480eac0146101ae578063c1cbbca7146101e9578063f00e6a2a14610224575b600080fd5b3480156100aa57600080fd5b506100b361024f565b6040518082815260200191505060405180910390f35b3480156100d557600080fd5b506100de610255565b6040518082815260200191505060405180910390f35b34801561010057600080fd5b50610109610262565b6040518082815260200191505060405180910390f35b34801561012b57600080fd5b5061013461026f565b60405180848152602001838152602001828152602001935050505060405180910390f35b34801561016457600080fd5b5061016d610287565b6040518082815260200191505060405180910390f35b34801561018f57600080fd5b50610198610291565b6040518082815260200191505060405180910390f35b3480156101ba57600080fd5b506101e7600480360360208110156101d157600080fd5b810190808035906020019092919050505061029b565b005b3480156101f557600080fd5b506102226004803603602081101561020c57600080fd5b810190808035906020019092919050505061030c565b005b34801561023057600080fd5b50610239610549565b6040518082815260200191505060405180910390f35b60065481565b6000600260010154905090565b6000600260000154905090565b60028060000154908060010154908060020154905083565b6000600554905090565b6000600654905090565b6000811115156102aa57600080fd5b6000809054906101000a900473ffffffffffffffffffffffffffffffffffffffff1673ffffffffffffffffffffffffffffffffffffffff163373ffffffffffffffffffffffffffffffffffffffff161415610309578060028001819055505b50565b60028001546002600101541015610546578060026001015460028001540310156103f95760016002600001540160026000018190555060026001015460028001540360068190555060065460026001015401600260010181905550600654600160003373ffffffffffffffffffffffffffffffffffffffff1673ffffffffffffffffffffffffffffffffffffffff1681526020019081526020016000206000015401600160003373ffffffffffffffffffffffffffffffffffffffff1673ffffffffffffffffffffffffffffffffffffffff168152602001908152602001600020600001819055506104af565b60016002600001540160026000018190555080600681905550806002600101540160026001018190555080600160003373ffffffffffffffffffffffffffffffffffffffff1673ffffffffffffffffffffffffffffffffffffffff1681526020019081526020016000206000015401600160003373ffffffffffffffffffffffffffffffffffffffff1673ffffffffffffffffffffffffffffffffffffffff168152602001908152602001600020600001819055505b600554600160003373ffffffffffffffffffffffffffffffffffffffff1673ffffffffffffffffffffffffffffffffffffffff16815260200190815260200160002060000154111561054557600160003373ffffffffffffffffffffffffffffffffffffffff1673ffffffffffffffffffffffffffffffffffffffff168152602001908152602001600020600001546005819055505b5b50565b6000600280015490509056fea165627a7a72305820930d23fec6f3bec867fd6ce707a04aee7a9172e3fa4d5479b1cc6c4fac4f0bf40029",
  "source": "pragma solidity ^0.5.0;\r\ncontract Contribution {\r\n\r\n    struct Person{\r\n        //记录账户的累积捐款金额\r\n        uint money;\r\n    }\r\n    \r\n    struct Fundraising{\r\n        //参与募捐的人数，同一个人捐款了两次算作有两个人参与了募捐\r\n        uint participants;\r\n        //目前筹集到的捐款\r\n        uint funds;\r\n        //募捐的目标金额\r\n        uint target;\r\n    }\r\n\r\n    //募捐发起人\r\n    address fundraiser;\r\n    //为每个可能的地址存储一个\"Person\"\r\n    mapping(address => Person) people;\r\n    //记录这次募捐信息的一个变量\r\n    Fundraising public fundraisings;\r\n    //目前最大的捐款数\r\n    uint _max;\r\n    uint public pay;\r\n    \r\n    constructor() public {\r\n        //把智能合约的部署者设置为募捐发起者\r\n        fundraiser = msg.sender;\r\n        fundraisings.participants = 0;\r\n        fundraisings.funds = 0;\r\n        fundraisings.target = 0;\r\n        people[fundraiser].money = 0;\r\n    }\r\n    \r\n    //设置目标金额\r\n    function setTarget(uint _target) public {\r\n        require(_target > 0);\r\n        //只有募捐发起者可以设置目标金额\r\n        if (msg.sender == fundraiser){\r\n            fundraisings.target = _target;\r\n        }\r\n    }\r\n    \r\n    //进行捐款\r\n    function contribute(uint _money) public {\r\n        //如果此次募捐还没达到目标金额，捐款才能成功\r\n        if (fundraisings.funds < fundraisings.target){\r\n            //如果募捐离目标所需要的金额小于此次捐款数，则只收取需要的金额，退还多余捐款\r\n            if (fundraisings.target - fundraisings.funds < _money) {\r\n                fundraisings.participants = fundraisings.participants + 1;\r\n                pay = fundraisings.target - fundraisings.funds;\r\n                fundraisings.funds = fundraisings.funds + pay;\r\n                people[msg.sender].money = people[msg.sender].money + pay;\r\n            } \r\n            //成功捐款，募捐的筹集金额增加对应数值\r\n            else {\r\n                fundraisings.participants = fundraisings.participants + 1;\r\n                pay = _money;\r\n                fundraisings.funds = fundraisings.funds + _money;\r\n                people[msg.sender].money = people[msg.sender].money + _money;\r\n            }\r\n            //统计最大捐款数\r\n            if (people[msg.sender].money > _max){\r\n                _max = people[msg.sender].money;\r\n            }\r\n        }\r\n    }\r\n\r\n    //公示最大捐款数\r\n    function maxContribution() public view returns (uint max) {\r\n        return _max;\r\n    }\r\n\r\n    //获取目标金额\r\n    function getTarget() public view returns (uint target) {\r\n        return fundraisings.target;\r\n    }\r\n\r\n    //获取已筹集资金\r\n    function getFunds() public view returns (uint funds) {\r\n        return fundraisings.funds;\r\n    }\r\n\r\n    //获取参与人次\r\n    function getParticipants() public view returns (uint participants) {\r\n        return fundraisings.participants;\r\n    }\r\n\r\n    function getPay() public view returns (uint _pay) {\r\n        return pay;\r\n    }\r\n}",
  "sourcePath": "F:/文档/区块链/期末项目/project/contracts/Contribution.sol",
  "compiler": {
    "name": "solc",
    "version": "0.5.0+commit.1d4f565a.Emscripten.clang"
  },
  "schemaVersion": "3.0.0",
  "updatedAt": "2018-12-30T13:03:11.358Z",
  "devdoc": {
    "methods": {}
  },
  "userdoc": {
    "methods": {}
  }
}